{
  "_format": "hh-sol-artifact-1",
  "contractName": "Marketplace",
  "sourceName": "src/backend/contracts/Marketplace.sol",
  "abi": [
    {
      "inputs": [
        {
          "internalType": "uint256",
          "name": "_feePercent",
          "type": "uint256"
        }
      ],
      "stateMutability": "nonpayable",
      "type": "constructor"
    },
    {
      "anonymous": false,
      "inputs": [
        {
          "indexed": false,
          "internalType": "uint256",
          "name": "itemId",
          "type": "uint256"
        },
        {
          "indexed": true,
          "internalType": "address",
          "name": "nft",
          "type": "address"
        },
        {
          "indexed": false,
          "internalType": "uint256",
          "name": "tokenId",
          "type": "uint256"
        },
        {
          "indexed": false,
          "internalType": "uint256",
          "name": "price",
          "type": "uint256"
        },
        {
          "indexed": true,
          "internalType": "address",
          "name": "seller",
          "type": "address"
        },
        {
          "indexed": true,
          "internalType": "address",
          "name": "buyer",
          "type": "address"
        }
      ],
      "name": "Bought",
      "type": "event"
    },
    {
      "anonymous": false,
      "inputs": [
        {
          "indexed": false,
          "internalType": "uint256",
          "name": "itemId",
          "type": "uint256"
        },
        {
          "indexed": true,
          "internalType": "address",
          "name": "nft",
          "type": "address"
        },
        {
          "indexed": false,
          "internalType": "uint256",
          "name": "tokenId",
          "type": "uint256"
        },
        {
          "indexed": true,
          "internalType": "address",
          "name": "seller",
          "type": "address"
        }
      ],
      "name": "OfferCanceled",
      "type": "event"
    },
    {
      "anonymous": false,
      "inputs": [
        {
          "indexed": false,
          "internalType": "uint256",
          "name": "itemId",
          "type": "uint256"
        },
        {
          "indexed": true,
          "internalType": "address",
          "name": "nft",
          "type": "address"
        },
        {
          "indexed": false,
          "internalType": "uint256",
          "name": "tokenId",
          "type": "uint256"
        },
        {
          "indexed": false,
          "internalType": "uint256",
          "name": "price",
          "type": "uint256"
        },
        {
          "indexed": true,
          "internalType": "address",
          "name": "seller",
          "type": "address"
        }
      ],
      "name": "Offered",
      "type": "event"
    },
    {
      "inputs": [
        {
          "internalType": "uint256",
          "name": "_itemId",
          "type": "uint256"
        }
      ],
      "name": "cancelItemOffer",
      "outputs": [],
      "stateMutability": "payable",
      "type": "function"
    },
    {
      "inputs": [],
      "name": "feeAccount",
      "outputs": [
        {
          "internalType": "address payable",
          "name": "",
          "type": "address"
        }
      ],
      "stateMutability": "view",
      "type": "function"
    },
    {
      "inputs": [],
      "name": "feePercent",
      "outputs": [
        {
          "internalType": "uint256",
          "name": "",
          "type": "uint256"
        }
      ],
      "stateMutability": "view",
      "type": "function"
    },
    {
      "inputs": [
        {
          "internalType": "uint256",
          "name": "_itemId",
          "type": "uint256"
        }
      ],
      "name": "getTotalPrice",
      "outputs": [
        {
          "internalType": "uint256",
          "name": "",
          "type": "uint256"
        }
      ],
      "stateMutability": "view",
      "type": "function"
    },
    {
      "inputs": [],
      "name": "itemCount",
      "outputs": [
        {
          "internalType": "uint256",
          "name": "",
          "type": "uint256"
        }
      ],
      "stateMutability": "view",
      "type": "function"
    },
    {
      "inputs": [
        {
          "internalType": "uint256",
          "name": "",
          "type": "uint256"
        }
      ],
      "name": "items",
      "outputs": [
        {
          "internalType": "uint256",
          "name": "itemId",
          "type": "uint256"
        },
        {
          "internalType": "contract IERC721",
          "name": "nft",
          "type": "address"
        },
        {
          "internalType": "uint256",
          "name": "tokenId",
          "type": "uint256"
        },
        {
          "internalType": "uint256",
          "name": "price",
          "type": "uint256"
        },
        {
          "internalType": "address payable",
          "name": "seller",
          "type": "address"
        },
        {
          "internalType": "bool",
          "name": "sold",
          "type": "bool"
        },
        {
          "internalType": "bool",
          "name": "canceled",
          "type": "bool"
        }
      ],
      "stateMutability": "view",
      "type": "function"
    },
    {
      "inputs": [
        {
          "internalType": "contract IERC721",
          "name": "_nft",
          "type": "address"
        },
        {
          "internalType": "uint256",
          "name": "_tokenId",
          "type": "uint256"
        },
        {
          "internalType": "uint256",
          "name": "_price",
          "type": "uint256"
        }
      ],
      "name": "makeItem",
      "outputs": [],
      "stateMutability": "nonpayable",
      "type": "function"
    },
    {
      "inputs": [
        {
          "internalType": "string",
          "name": "",
          "type": "string"
        }
      ],
      "name": "ongs",
      "outputs": [
        {
          "internalType": "address payable",
          "name": "",
          "type": "address"
        }
      ],
      "stateMutability": "view",
      "type": "function"
    },
    {
      "inputs": [
        {
          "internalType": "uint256",
          "name": "_totalPrice",
          "type": "uint256"
        },
        {
          "internalType": "uint256",
          "name": "_itemPrice",
          "type": "uint256"
        },
        {
          "internalType": "address payable",
          "name": "_ONG",
          "type": "address"
        }
      ],
      "name": "payTax",
      "outputs": [],
      "stateMutability": "nonpayable",
      "type": "function"
    },
    {
      "inputs": [
        {
          "internalType": "uint256",
          "name": "_itemId",
          "type": "uint256"
        },
        {
          "internalType": "string",
          "name": "_ONG",
          "type": "string"
        }
      ],
      "name": "purchaseItem",
      "outputs": [],
      "stateMutability": "payable",
      "type": "function"
    },
    {
      "inputs": [
        {
          "internalType": "address payable",
          "name": "_ONGAddress",
          "type": "address"
        },
        {
          "internalType": "string",
          "name": "_ONGname",
          "type": "string"
        }
      ],
      "name": "setONGWalletAddress",
      "outputs": [],
      "stateMutability": "nonpayable",
      "type": "function"
    }
  ],
  "bytecode": "0x60c06040523480156200001157600080fd5b50604051620018583803806200185883398181016040528101906200003791906200010d565b60016000819055503373ffffffffffffffffffffffffffffffffffffffff1660808173ffffffffffffffffffffffffffffffffffffffff1660601b815250508060a0818152505073ce6fe87b0f99cae738c1f40208e6929c6eb000496003604051620000a39062000160565b908152602001604051809103902060006101000a81548173ffffffffffffffffffffffffffffffffffffffff021916908373ffffffffffffffffffffffffffffffffffffffff16021790555050620001cf565b6000815190506200010781620001b5565b92915050565b6000602082840312156200012057600080fd5b60006200013084828501620000f6565b91505092915050565b60006200014860088362000177565b915062000155826200018c565b600882019050919050565b60006200016d8262000139565b9150819050919050565b600081905092915050565b6000819050919050565b7f4372757a526f6a61000000000000000000000000000000000000000000000000600082015250565b620001c08162000182565b8114620001cc57600080fd5b50565b60805160601c60a05161165262000206600039600081816108b6015261097a0152600081816104de015261057201526116526000f3fe60806040526004361061009c5760003560e01c80637858f126116100645780637858f126146101795780637fd6f15c14610195578063bfb231d2146101c0578063ca7dd37514610203578063dc00f32014610240578063fa00afc7146102695761009c565b8063193bef0c146100a157806358e85a0e146100bd57806365e17c9d146100fa5780636bfb0d0114610125578063706da92114610150575b600080fd5b6100bb60048036038101906100b69190610ee8565b610292565b005b3480156100c957600080fd5b506100e460048036038101906100df9190610ea7565b610493565b6040516100f1919061108d565b60405180910390f35b34801561010657600080fd5b5061010f6104dc565b60405161011c919061108d565b60405180910390f35b34801561013157600080fd5b5061013a610500565b604051610147919061111f565b60405180910390f35b34801561015c57600080fd5b5061017760048036038101906101729190610f65565b610506565b005b610193600480360381019061018e9190610f11565b6105f0565b005b3480156101a157600080fd5b506101aa6108b4565b6040516101b7919061111f565b60405180910390f35b3480156101cc57600080fd5b506101e760048036038101906101e29190610ee8565b6108d8565b6040516101fa979695949392919061113a565b60405180910390f35b34801561020f57600080fd5b5061022a60048036038101906102259190610ee8565b610974565b604051610237919061111f565b60405180910390f35b34801561024c57600080fd5b5061026760048036038101906102629190610e04565b6109d7565b005b34801561027557600080fd5b50610290600480360381019061028b9190610e58565b610a38565b005b61029a610ced565b60006002600083815260200190815260200160002090506000821180156102c357506001548211155b6102cc57600080fd5b3373ffffffffffffffffffffffffffffffffffffffff168160040160009054906101000a900473ffffffffffffffffffffffffffffffffffffffff1673ffffffffffffffffffffffffffffffffffffffff161461032857600080fd5b8060040160149054906101000a900460ff161561034457600080fd5b60018160040160156101000a81548160ff0219169083151502179055508060010160009054906101000a900473ffffffffffffffffffffffffffffffffffffffff1673ffffffffffffffffffffffffffffffffffffffff166323b872dd303384600201546040518463ffffffff1660e01b81526004016103c6939291906110a8565b600060405180830381600087803b1580156103e057600080fd5b505af11580156103f4573d6000803e3d6000fd5b505050503373ffffffffffffffffffffffffffffffffffffffff168160010160009054906101000a900473ffffffffffffffffffffffffffffffffffffffff1673ffffffffffffffffffffffffffffffffffffffff167f6c3637f4c69d7c7754e8a81be1a32e0b50f414a6c8d7c323b03ffe2c49c2f18a84846002015460405161047f9291906111a9565b60405180910390a350610490610d3d565b50565b6003818051602081018201805184825260208301602085012081835280955050505050506000915054906101000a900473ffffffffffffffffffffffffffffffffffffffff1681565b7f000000000000000000000000000000000000000000000000000000000000000081565b60015481565b600082846105149190611367565b90508173ffffffffffffffffffffffffffffffffffffffff166108fc610544600284610d4790919063ffffffff16565b9081150290604051600060405180830381858888f1935050505015801561056f573d6000803e3d6000fd5b507f000000000000000000000000000000000000000000000000000000000000000073ffffffffffffffffffffffffffffffffffffffff166108fc6105be600284610d4790919063ffffffff16565b9081150290604051600060405180830381858888f193505050501580156105e9573d6000803e3d6000fd5b5050505050565b6105f8610ced565b600060038260405161060a9190611076565b908152602001604051809103902060009054906101000a900473ffffffffffffffffffffffffffffffffffffffff169050600061064684610974565b9050600060026000868152602001908152602001600020905060008511801561067157506001548511155b61067a57600080fd5b8134101561068757600080fd5b8060040160149054906101000a900460ff16156106a357600080fd5b6106b282826003015485610506565b8060040160009054906101000a900473ffffffffffffffffffffffffffffffffffffffff1673ffffffffffffffffffffffffffffffffffffffff166108fc82600301549081150290604051600060405180830381858888f19350505050158015610720573d6000803e3d6000fd5b5060018160040160146101000a81548160ff0219169083151502179055508060010160009054906101000a900473ffffffffffffffffffffffffffffffffffffffff1673ffffffffffffffffffffffffffffffffffffffff166323b872dd303384600201546040518463ffffffff1660e01b81526004016107a3939291906110a8565b600060405180830381600087803b1580156107bd57600080fd5b505af11580156107d1573d6000803e3d6000fd5b505050503373ffffffffffffffffffffffffffffffffffffffff168160040160009054906101000a900473ffffffffffffffffffffffffffffffffffffffff1673ffffffffffffffffffffffffffffffffffffffff168260010160009054906101000a900473ffffffffffffffffffffffffffffffffffffffff1673ffffffffffffffffffffffffffffffffffffffff167f8b4c9c8a607d67b321582dd8461041b1dc2ceeca70c8b7f37f8e02095cf2e76d888560020154866003015460405161089d939291906111d2565b60405180910390a45050506108b0610d3d565b5050565b7f000000000000000000000000000000000000000000000000000000000000000081565b60026020528060005260406000206000915090508060000154908060010160009054906101000a900473ffffffffffffffffffffffffffffffffffffffff16908060020154908060030154908060040160009054906101000a900473ffffffffffffffffffffffffffffffffffffffff16908060040160149054906101000a900460ff16908060040160159054906101000a900460ff16905087565b600060647f000000000000000000000000000000000000000000000000000000000000000060646109a59190611286565b60026000858152602001908152602001600020600301546109c6919061130d565b6109d091906112dc565b9050919050565b816003826040516109e89190611076565b908152602001604051809103902060006101000a81548173ffffffffffffffffffffffffffffffffffffffff021916908373ffffffffffffffffffffffffffffffffffffffff1602179055505050565b610a40610ced565b60008111610a83576040517f08c379a0000000000000000000000000000000000000000000000000000000008152600401610a7a906110df565b60405180910390fd5b60016000815480929190610a969061149e565b91905055508273ffffffffffffffffffffffffffffffffffffffff166323b872dd3330856040518463ffffffff1660e01b8152600401610ad8939291906110a8565b600060405180830381600087803b158015610af257600080fd5b505af1158015610b06573d6000803e3d6000fd5b505050506040518060e0016040528060015481526020018473ffffffffffffffffffffffffffffffffffffffff1681526020018381526020018281526020013373ffffffffffffffffffffffffffffffffffffffff168152602001600015158152602001600015158152506002600060015481526020019081526020016000206000820151816000015560208201518160010160006101000a81548173ffffffffffffffffffffffffffffffffffffffff021916908373ffffffffffffffffffffffffffffffffffffffff160217905550604082015181600201556060820151816003015560808201518160040160006101000a81548173ffffffffffffffffffffffffffffffffffffffff021916908373ffffffffffffffffffffffffffffffffffffffff16021790555060a08201518160040160146101000a81548160ff02191690831515021790555060c08201518160040160156101000a81548160ff0219169083151502179055509050503373ffffffffffffffffffffffffffffffffffffffff168373ffffffffffffffffffffffffffffffffffffffff167f655a0cf9c8db81512be9a76dc1c5ae5380b8816ce6ad659cd61b715e2999d59a6001548585604051610cd8939291906111d2565b60405180910390a3610ce8610d3d565b505050565b60026000541415610d33576040517f08c379a0000000000000000000000000000000000000000000000000000000008152600401610d2a906110ff565b60405180910390fd5b6002600081905550565b6001600081905550565b60008183610d5591906112dc565b905092915050565b6000610d70610d6b8461122e565b611209565b905082815260208101848484011115610d8857600080fd5b610d9384828561142b565b509392505050565b600081359050610daa816115d7565b92915050565b600081359050610dbf816115ee565b92915050565b600082601f830112610dd657600080fd5b8135610de6848260208601610d5d565b91505092915050565b600081359050610dfe81611605565b92915050565b60008060408385031215610e1757600080fd5b6000610e2585828601610d9b565b925050602083013567ffffffffffffffff811115610e4257600080fd5b610e4e85828601610dc5565b9150509250929050565b600080600060608486031215610e6d57600080fd5b6000610e7b86828701610db0565b9350506020610e8c86828701610def565b9250506040610e9d86828701610def565b9150509250925092565b600060208284031215610eb957600080fd5b600082013567ffffffffffffffff811115610ed357600080fd5b610edf84828501610dc5565b91505092915050565b600060208284031215610efa57600080fd5b6000610f0884828501610def565b91505092915050565b60008060408385031215610f2457600080fd5b6000610f3285828601610def565b925050602083013567ffffffffffffffff811115610f4f57600080fd5b610f5b85828601610dc5565b9150509250929050565b600080600060608486031215610f7a57600080fd5b6000610f8886828701610def565b9350506020610f9986828701610def565b9250506040610faa86828701610d9b565b9150509250925092565b610fbd816113ad565b82525050565b610fcc8161139b565b82525050565b610fdb816113bf565b82525050565b610fea81611407565b82525050565b6000610ffb8261125f565b611005818561127b565b935061101581856020860161143a565b80840191505092915050565b600061102e601f8361126a565b915061103982611585565b602082019050919050565b6000611051601f8361126a565b915061105c826115ae565b602082019050919050565b611070816113fd565b82525050565b60006110828284610ff0565b915081905092915050565b60006020820190506110a26000830184610fb4565b92915050565b60006060820190506110bd6000830186610fc3565b6110ca6020830185610fc3565b6110d76040830184611067565b949350505050565b600060208201905081810360008301526110f881611021565b9050919050565b6000602082019050818103600083015261111881611044565b9050919050565b60006020820190506111346000830184611067565b92915050565b600060e08201905061114f600083018a611067565b61115c6020830189610fe1565b6111696040830188611067565b6111766060830187611067565b6111836080830186610fb4565b61119060a0830185610fd2565b61119d60c0830184610fd2565b98975050505050505050565b60006040820190506111be6000830185611067565b6111cb6020830184611067565b9392505050565b60006060820190506111e76000830186611067565b6111f46020830185611067565b6112016040830184611067565b949350505050565b6000611213611224565b905061121f828261146d565b919050565b6000604051905090565b600067ffffffffffffffff82111561124957611248611545565b5b61125282611574565b9050602081019050919050565b600081519050919050565b600082825260208201905092915050565b600081905092915050565b6000611291826113fd565b915061129c836113fd565b9250827fffffffffffffffffffffffffffffffffffffffffffffffffffffffffffffffff038211156112d1576112d06114e7565b5b828201905092915050565b60006112e7826113fd565b91506112f2836113fd565b92508261130257611301611516565b5b828204905092915050565b6000611318826113fd565b9150611323836113fd565b9250817fffffffffffffffffffffffffffffffffffffffffffffffffffffffffffffffff048311821515161561135c5761135b6114e7565b5b828202905092915050565b6000611372826113fd565b915061137d836113fd565b9250828210156113905761138f6114e7565b5b828203905092915050565b60006113a6826113dd565b9050919050565b60006113b8826113dd565b9050919050565b60008115159050919050565b60006113d68261139b565b9050919050565b600073ffffffffffffffffffffffffffffffffffffffff82169050919050565b6000819050919050565b600061141282611419565b9050919050565b6000611424826113dd565b9050919050565b82818337600083830152505050565b60005b8381101561145857808201518184015260208101905061143d565b83811115611467576000848401525b50505050565b61147682611574565b810181811067ffffffffffffffff8211171561149557611494611545565b5b80604052505050565b60006114a9826113fd565b91507fffffffffffffffffffffffffffffffffffffffffffffffffffffffffffffffff8214156114dc576114db6114e7565b5b600182019050919050565b7f4e487b7100000000000000000000000000000000000000000000000000000000600052601160045260246000fd5b7f4e487b7100000000000000000000000000000000000000000000000000000000600052601260045260246000fd5b7f4e487b7100000000000000000000000000000000000000000000000000000000600052604160045260246000fd5b6000601f19601f8301169050919050565b7f5072696365206d7573742062652067726561746572207468616e207a65726f00600082015250565b7f5265656e7472616e637947756172643a207265656e7472616e742063616c6c00600082015250565b6115e0816113ad565b81146115eb57600080fd5b50565b6115f7816113cb565b811461160257600080fd5b50565b61160e816113fd565b811461161957600080fd5b5056fea26469706673582212204b5ef7332d1b2b7ebf49c7acd3faf65f617db275718246fff14f9f7e3c51a5c364736f6c63430008040033",
  "linkReferences": {},
  "deployedLinkReferences": {}
}