{
  "_format": "hh-sol-artifact-1",
  "contractName": "Marketplace",
  "sourceName": "src/backend/contracts/Marketplace.sol",
  "abi": [
    {
      "inputs": [
        {
          "internalType": "uint256",
          "name": "_feePercent",
          "type": "uint256"
        }
      ],
      "stateMutability": "nonpayable",
      "type": "constructor"
    },
    {
      "anonymous": false,
      "inputs": [
        {
          "indexed": false,
          "internalType": "uint256",
          "name": "itemId",
          "type": "uint256"
        },
        {
          "indexed": true,
          "internalType": "address",
          "name": "nft",
          "type": "address"
        },
        {
          "indexed": false,
          "internalType": "uint256",
          "name": "tokenId",
          "type": "uint256"
        },
        {
          "indexed": false,
          "internalType": "uint256",
          "name": "price",
          "type": "uint256"
        },
        {
          "indexed": true,
          "internalType": "address",
          "name": "seller",
          "type": "address"
        },
        {
          "indexed": true,
          "internalType": "address",
          "name": "buyer",
          "type": "address"
        }
      ],
      "name": "Bought",
      "type": "event"
    },
    {
      "anonymous": false,
      "inputs": [
        {
          "indexed": false,
          "internalType": "uint256",
          "name": "itemId",
          "type": "uint256"
        },
        {
          "indexed": true,
          "internalType": "address",
          "name": "nft",
          "type": "address"
        },
        {
          "indexed": false,
          "internalType": "uint256",
          "name": "tokenId",
          "type": "uint256"
        },
        {
          "indexed": true,
          "internalType": "address",
          "name": "seller",
          "type": "address"
        }
      ],
      "name": "OfferCanceled",
      "type": "event"
    },
    {
      "anonymous": false,
      "inputs": [
        {
          "indexed": false,
          "internalType": "uint256",
          "name": "itemId",
          "type": "uint256"
        },
        {
          "indexed": true,
          "internalType": "address",
          "name": "nft",
          "type": "address"
        },
        {
          "indexed": false,
          "internalType": "uint256",
          "name": "tokenId",
          "type": "uint256"
        },
        {
          "indexed": false,
          "internalType": "uint256",
          "name": "price",
          "type": "uint256"
        },
        {
          "indexed": true,
          "internalType": "address",
          "name": "seller",
          "type": "address"
        }
      ],
      "name": "Offered",
      "type": "event"
    },
    {
      "inputs": [
        {
          "internalType": "uint256",
          "name": "_itemId",
          "type": "uint256"
        }
      ],
      "name": "cancelItemOffer",
      "outputs": [],
      "stateMutability": "payable",
      "type": "function"
    },
    {
      "inputs": [],
      "name": "feeAccount",
      "outputs": [
        {
          "internalType": "address payable",
          "name": "",
          "type": "address"
        }
      ],
      "stateMutability": "view",
      "type": "function"
    },
    {
      "inputs": [],
      "name": "feePercent",
      "outputs": [
        {
          "internalType": "uint256",
          "name": "",
          "type": "uint256"
        }
      ],
      "stateMutability": "view",
      "type": "function"
    },
    {
      "inputs": [],
      "name": "getFeeAccountAddress",
      "outputs": [
        {
          "internalType": "address",
          "name": "",
          "type": "address"
        }
      ],
      "stateMutability": "view",
      "type": "function"
    },
    {
      "inputs": [],
      "name": "getOngsName",
      "outputs": [
        {
          "internalType": "string[]",
          "name": "",
          "type": "string[]"
        }
      ],
      "stateMutability": "view",
      "type": "function"
    },
    {
      "inputs": [
        {
          "internalType": "uint256",
          "name": "_itemId",
          "type": "uint256"
        }
      ],
      "name": "getTotalPrice",
      "outputs": [
        {
          "internalType": "uint256",
          "name": "",
          "type": "uint256"
        }
      ],
      "stateMutability": "view",
      "type": "function"
    },
    {
      "inputs": [],
      "name": "itemCount",
      "outputs": [
        {
          "internalType": "uint256",
          "name": "",
          "type": "uint256"
        }
      ],
      "stateMutability": "view",
      "type": "function"
    },
    {
      "inputs": [
        {
          "internalType": "uint256",
          "name": "",
          "type": "uint256"
        }
      ],
      "name": "items",
      "outputs": [
        {
          "internalType": "uint256",
          "name": "itemId",
          "type": "uint256"
        },
        {
          "internalType": "contract IERC721",
          "name": "nft",
          "type": "address"
        },
        {
          "internalType": "uint256",
          "name": "tokenId",
          "type": "uint256"
        },
        {
          "internalType": "uint256",
          "name": "price",
          "type": "uint256"
        },
        {
          "internalType": "address payable",
          "name": "seller",
          "type": "address"
        },
        {
          "internalType": "bool",
          "name": "sold",
          "type": "bool"
        },
        {
          "internalType": "bool",
          "name": "canceled",
          "type": "bool"
        }
      ],
      "stateMutability": "view",
      "type": "function"
    },
    {
      "inputs": [
        {
          "internalType": "contract IERC721",
          "name": "_nft",
          "type": "address"
        },
        {
          "internalType": "uint256",
          "name": "_tokenId",
          "type": "uint256"
        },
        {
          "internalType": "uint256",
          "name": "_price",
          "type": "uint256"
        }
      ],
      "name": "makeItem",
      "outputs": [],
      "stateMutability": "nonpayable",
      "type": "function"
    },
    {
      "inputs": [
        {
          "internalType": "string",
          "name": "",
          "type": "string"
        }
      ],
      "name": "ongs",
      "outputs": [
        {
          "internalType": "address payable",
          "name": "",
          "type": "address"
        }
      ],
      "stateMutability": "view",
      "type": "function"
    },
    {
      "inputs": [
        {
          "internalType": "uint256",
          "name": "",
          "type": "uint256"
        }
      ],
      "name": "ongsName",
      "outputs": [
        {
          "internalType": "string",
          "name": "",
          "type": "string"
        }
      ],
      "stateMutability": "view",
      "type": "function"
    },
    {
      "inputs": [
        {
          "internalType": "uint256",
          "name": "_totalPrice",
          "type": "uint256"
        },
        {
          "internalType": "uint256",
          "name": "_itemPrice",
          "type": "uint256"
        },
        {
          "internalType": "address payable",
          "name": "_ONG",
          "type": "address"
        }
      ],
      "name": "payTax",
      "outputs": [],
      "stateMutability": "nonpayable",
      "type": "function"
    },
    {
      "inputs": [
        {
          "internalType": "uint256",
          "name": "_itemId",
          "type": "uint256"
        },
        {
          "internalType": "string",
          "name": "_ONG",
          "type": "string"
        }
      ],
      "name": "purchaseItem",
      "outputs": [],
      "stateMutability": "payable",
      "type": "function"
    },
    {
      "inputs": [
        {
          "internalType": "address payable",
          "name": "_ONGAddress",
          "type": "address"
        },
        {
          "internalType": "string",
          "name": "_ONGname",
          "type": "string"
        }
      ],
      "name": "setONGWalletAddress",
      "outputs": [],
      "stateMutability": "nonpayable",
      "type": "function"
    }
  ],
  "bytecode": "0x60c06040523480156200001157600080fd5b506040516200202a3803806200202a83398181016040528101906200003791906200030e565b60016000819055503373ffffffffffffffffffffffffffffffffffffffff1660808173ffffffffffffffffffffffffffffffffffffffff1660601b815250508060a08181525050600067ffffffffffffffff811115620000c0577f4e487b7100000000000000000000000000000000000000000000000000000000600052604160045260246000fd5b604051908082528060200260200182016040528015620000f557816020015b6060815260200190600190039081620000df5790505b50600490805190602001906200010d92919062000172565b503360036040516200011f9062000361565b908152602001604051809103902060006101000a81548173ffffffffffffffffffffffffffffffffffffffff021916908373ffffffffffffffffffffffffffffffffffffffff1602179055505062000435565b828054828255906000526020600020908101928215620001c6579160200282015b82811115620001c5578251829080519060200190620001b4929190620001d9565b509160200191906001019062000193565b5b509050620001d591906200026a565b5090565b828054620001e7906200038d565b90600052602060002090601f0160209004810192826200020b576000855562000257565b82601f106200022657805160ff191683800117855562000257565b8280016001018555821562000257579182015b828111156200025657825182559160200191906001019062000239565b5b50905062000266919062000292565b5090565b5b808211156200028e5760008181620002849190620002b1565b506001016200026b565b5090565b5b80821115620002ad57600081600090555060010162000293565b5090565b508054620002bf906200038d565b6000825580601f10620002d35750620002f4565b601f016020900490600052602060002090810190620002f3919062000292565b5b50565b60008151905062000308816200041b565b92915050565b6000602082840312156200032157600080fd5b60006200033184828501620002f7565b91505092915050565b60006200034960058362000378565b91506200035682620003f2565b600582019050919050565b60006200036e826200033a565b9150819050919050565b600081905092915050565b6000819050919050565b60006002820490506001821680620003a657607f821691505b60208210811415620003bd57620003bc620003c3565b5b50919050565b7f4e487b7100000000000000000000000000000000000000000000000000000000600052602260045260246000fd5b7f6f776e6572000000000000000000000000000000000000000000000000000000600082015250565b620004268162000383565b81146200043257600080fd5b50565b60805160601c60a051611bb76200047360003960008181610a5e0152610bfb01526000818161056b01528181610686015261071a0152611bb76000f3fe6080604052600436106100dd5760003560e01c80637858f1261161007f578063bfb231d211610059578063bfb231d214610294578063ca7dd375146102d7578063dc00f32014610314578063fa00afc71461033d576100dd565b80637858f126146102225780637fd6f15c1461023e578063b4e97d1414610269576100dd565b806358e85a0e116100bb57806358e85a0e1461016657806365e17c9d146101a35780636bfb0d01146101ce578063706da921146101f9576100dd565b8063193bef0c146100e25780634bd91cb6146100fe578063532f851814610129575b600080fd5b6100fc60048036038101906100f79190611248565b610366565b005b34801561010a57600080fd5b50610113610567565b60405161012091906114e8565b60405180910390f35b34801561013557600080fd5b50610150600480360381019061014b9190611248565b61058f565b60405161015d9190611577565b60405180910390f35b34801561017257600080fd5b5061018d60048036038101906101889190611207565b61063b565b60405161019a9190611503565b60405180910390f35b3480156101af57600080fd5b506101b8610684565b6040516101c59190611503565b60405180910390f35b3480156101da57600080fd5b506101e36106a8565b6040516101f091906115d9565b60405180910390f35b34801561020557600080fd5b50610220600480360381019061021b91906112c5565b6106ae565b005b61023c60048036038101906102379190611271565b610798565b005b34801561024a57600080fd5b50610253610a5c565b60405161026091906115d9565b60405180910390f35b34801561027557600080fd5b5061027e610a80565b60405161028b9190611555565b60405180910390f35b3480156102a057600080fd5b506102bb60048036038101906102b69190611248565b610b59565b6040516102ce97969594939291906115f4565b60405180910390f35b3480156102e357600080fd5b506102fe60048036038101906102f99190611248565b610bf5565b60405161030b91906115d9565b60405180910390f35b34801561032057600080fd5b5061033b60048036038101906103369190611164565b610c58565b005b34801561034957600080fd5b50610364600480360381019061035f91906111b8565b610cf5565b005b61036e610faa565b600060026000838152602001908152602001600020905060008211801561039757506001548211155b6103a057600080fd5b3373ffffffffffffffffffffffffffffffffffffffff168160040160009054906101000a900473ffffffffffffffffffffffffffffffffffffffff1673ffffffffffffffffffffffffffffffffffffffff16146103fc57600080fd5b8060040160149054906101000a900460ff161561041857600080fd5b60018160040160156101000a81548160ff0219169083151502179055508060010160009054906101000a900473ffffffffffffffffffffffffffffffffffffffff1673ffffffffffffffffffffffffffffffffffffffff166323b872dd303384600201546040518463ffffffff1660e01b815260040161049a9392919061151e565b600060405180830381600087803b1580156104b457600080fd5b505af11580156104c8573d6000803e3d6000fd5b505050503373ffffffffffffffffffffffffffffffffffffffff168160010160009054906101000a900473ffffffffffffffffffffffffffffffffffffffff1673ffffffffffffffffffffffffffffffffffffffff167f6c3637f4c69d7c7754e8a81be1a32e0b50f414a6c8d7c323b03ffe2c49c2f18a848460020154604051610553929190611663565b60405180910390a350610564610ffa565b50565b60007f0000000000000000000000000000000000000000000000000000000000000000905090565b6004818154811061059f57600080fd5b9060005260206000200160009150905080546105ba90611971565b80601f01602080910402602001604051908101604052809291908181526020018280546105e690611971565b80156106335780601f1061060857610100808354040283529160200191610633565b820191906000526020600020905b81548152906001019060200180831161061657829003601f168201915b505050505081565b6003818051602081018201805184825260208301602085012081835280955050505050506000915054906101000a900473ffffffffffffffffffffffffffffffffffffffff1681565b7f000000000000000000000000000000000000000000000000000000000000000081565b60015481565b600082846106bc919061186b565b90508173ffffffffffffffffffffffffffffffffffffffff166108fc6106ec60028461100490919063ffffffff16565b9081150290604051600060405180830381858888f19350505050158015610717573d6000803e3d6000fd5b507f000000000000000000000000000000000000000000000000000000000000000073ffffffffffffffffffffffffffffffffffffffff166108fc61076660028461100490919063ffffffff16565b9081150290604051600060405180830381858888f19350505050158015610791573d6000803e3d6000fd5b5050505050565b6107a0610faa565b60006003826040516107b291906114d1565b908152602001604051809103902060009054906101000a900473ffffffffffffffffffffffffffffffffffffffff16905060006107ee84610bf5565b9050600060026000868152602001908152602001600020905060008511801561081957506001548511155b61082257600080fd5b8134101561082f57600080fd5b8060040160149054906101000a900460ff161561084b57600080fd5b61085a828260030154856106ae565b8060040160009054906101000a900473ffffffffffffffffffffffffffffffffffffffff1673ffffffffffffffffffffffffffffffffffffffff166108fc82600301549081150290604051600060405180830381858888f193505050501580156108c8573d6000803e3d6000fd5b5060018160040160146101000a81548160ff0219169083151502179055508060010160009054906101000a900473ffffffffffffffffffffffffffffffffffffffff1673ffffffffffffffffffffffffffffffffffffffff166323b872dd303384600201546040518463ffffffff1660e01b815260040161094b9392919061151e565b600060405180830381600087803b15801561096557600080fd5b505af1158015610979573d6000803e3d6000fd5b505050503373ffffffffffffffffffffffffffffffffffffffff168160040160009054906101000a900473ffffffffffffffffffffffffffffffffffffffff1673ffffffffffffffffffffffffffffffffffffffff168260010160009054906101000a900473ffffffffffffffffffffffffffffffffffffffff1673ffffffffffffffffffffffffffffffffffffffff167f8b4c9c8a607d67b321582dd8461041b1dc2ceeca70c8b7f37f8e02095cf2e76d8885600201548660030154604051610a459392919061168c565b60405180910390a4505050610a58610ffa565b5050565b7f000000000000000000000000000000000000000000000000000000000000000081565b60606004805480602002602001604051908101604052809291908181526020016000905b82821015610b50578382906000526020600020018054610ac390611971565b80601f0160208091040260200160405190810160405280929190818152602001828054610aef90611971565b8015610b3c5780601f10610b1157610100808354040283529160200191610b3c565b820191906000526020600020905b815481529060010190602001808311610b1f57829003601f168201915b505050505081526020019060010190610aa4565b50505050905090565b60026020528060005260406000206000915090508060000154908060010160009054906101000a900473ffffffffffffffffffffffffffffffffffffffff16908060020154908060030154908060040160009054906101000a900473ffffffffffffffffffffffffffffffffffffffff16908060040160149054906101000a900460ff16908060040160159054906101000a900460ff16905087565b600060647f00000000000000000000000000000000000000000000000000000000000000006064610c26919061178a565b6002600085815260200190815260200160002060030154610c479190611811565b610c5191906117e0565b9050919050565b600481908060018154018082558091505060019003906000526020600020016000909190919091509080519060200190610c9392919061101a565b5081600382604051610ca591906114d1565b908152602001604051809103902060006101000a81548173ffffffffffffffffffffffffffffffffffffffff021916908373ffffffffffffffffffffffffffffffffffffffff1602179055505050565b610cfd610faa565b60008111610d40576040517f08c379a0000000000000000000000000000000000000000000000000000000008152600401610d3790611599565b60405180910390fd5b60016000815480929190610d53906119d4565b91905055508273ffffffffffffffffffffffffffffffffffffffff166323b872dd3330856040518463ffffffff1660e01b8152600401610d959392919061151e565b600060405180830381600087803b158015610daf57600080fd5b505af1158015610dc3573d6000803e3d6000fd5b505050506040518060e0016040528060015481526020018473ffffffffffffffffffffffffffffffffffffffff1681526020018381526020018281526020013373ffffffffffffffffffffffffffffffffffffffff168152602001600015158152602001600015158152506002600060015481526020019081526020016000206000820151816000015560208201518160010160006101000a81548173ffffffffffffffffffffffffffffffffffffffff021916908373ffffffffffffffffffffffffffffffffffffffff160217905550604082015181600201556060820151816003015560808201518160040160006101000a81548173ffffffffffffffffffffffffffffffffffffffff021916908373ffffffffffffffffffffffffffffffffffffffff16021790555060a08201518160040160146101000a81548160ff02191690831515021790555060c08201518160040160156101000a81548160ff0219169083151502179055509050503373ffffffffffffffffffffffffffffffffffffffff168373ffffffffffffffffffffffffffffffffffffffff167f655a0cf9c8db81512be9a76dc1c5ae5380b8816ce6ad659cd61b715e2999d59a6001548585604051610f959392919061168c565b60405180910390a3610fa5610ffa565b505050565b60026000541415610ff0576040517f08c379a0000000000000000000000000000000000000000000000000000000008152600401610fe7906115b9565b60405180910390fd5b6002600081905550565b6001600081905550565b6000818361101291906117e0565b905092915050565b82805461102690611971565b90600052602060002090601f016020900481019282611048576000855561108f565b82601f1061106157805160ff191683800117855561108f565b8280016001018555821561108f579182015b8281111561108e578251825591602001919060010190611073565b5b50905061109c91906110a0565b5090565b5b808211156110b95760008160009055506001016110a1565b5090565b60006110d06110cb846116e8565b6116c3565b9050828152602081018484840111156110e857600080fd5b6110f384828561192f565b509392505050565b60008135905061110a81611b3c565b92915050565b60008135905061111f81611b53565b92915050565b600082601f83011261113657600080fd5b81356111468482602086016110bd565b91505092915050565b60008135905061115e81611b6a565b92915050565b6000806040838503121561117757600080fd5b6000611185858286016110fb565b925050602083013567ffffffffffffffff8111156111a257600080fd5b6111ae85828601611125565b9150509250929050565b6000806000606084860312156111cd57600080fd5b60006111db86828701611110565b93505060206111ec8682870161114f565b92505060406111fd8682870161114f565b9150509250925092565b60006020828403121561121957600080fd5b600082013567ffffffffffffffff81111561123357600080fd5b61123f84828501611125565b91505092915050565b60006020828403121561125a57600080fd5b60006112688482850161114f565b91505092915050565b6000806040838503121561128457600080fd5b60006112928582860161114f565b925050602083013567ffffffffffffffff8111156112af57600080fd5b6112bb85828601611125565b9150509250929050565b6000806000606084860312156112da57600080fd5b60006112e88682870161114f565b93505060206112f98682870161114f565b925050604061130a868287016110fb565b9150509250925092565b600061132083836113d9565b905092915050565b611331816118b1565b82525050565b6113408161189f565b82525050565b600061135182611729565b61135b818561174c565b93508360208202850161136d85611719565b8060005b858110156113a9578484038952815161138a8582611314565b94506113958361173f565b925060208a01995050600181019050611371565b50829750879550505050505092915050565b6113c4816118c3565b82525050565b6113d38161190b565b82525050565b60006113e482611734565b6113ee818561175d565b93506113fe81856020860161193e565b61140781611ad9565b840191505092915050565b600061141d82611734565b611427818561176e565b935061143781856020860161193e565b61144081611ad9565b840191505092915050565b600061145682611734565b611460818561177f565b935061147081856020860161193e565b80840191505092915050565b6000611489601f8361176e565b915061149482611aea565b602082019050919050565b60006114ac601f8361176e565b91506114b782611b13565b602082019050919050565b6114cb81611901565b82525050565b60006114dd828461144b565b915081905092915050565b60006020820190506114fd6000830184611337565b92915050565b60006020820190506115186000830184611328565b92915050565b60006060820190506115336000830186611337565b6115406020830185611337565b61154d60408301846114c2565b949350505050565b6000602082019050818103600083015261156f8184611346565b905092915050565b600060208201905081810360008301526115918184611412565b905092915050565b600060208201905081810360008301526115b28161147c565b9050919050565b600060208201905081810360008301526115d28161149f565b9050919050565b60006020820190506115ee60008301846114c2565b92915050565b600060e082019050611609600083018a6114c2565b61161660208301896113ca565b61162360408301886114c2565b61163060608301876114c2565b61163d6080830186611328565b61164a60a08301856113bb565b61165760c08301846113bb565b98975050505050505050565b600060408201905061167860008301856114c2565b61168560208301846114c2565b9392505050565b60006060820190506116a160008301866114c2565b6116ae60208301856114c2565b6116bb60408301846114c2565b949350505050565b60006116cd6116de565b90506116d982826119a3565b919050565b6000604051905090565b600067ffffffffffffffff82111561170357611702611aaa565b5b61170c82611ad9565b9050602081019050919050565b6000819050602082019050919050565b600081519050919050565b600081519050919050565b6000602082019050919050565b600082825260208201905092915050565b600082825260208201905092915050565b600082825260208201905092915050565b600081905092915050565b600061179582611901565b91506117a083611901565b9250827fffffffffffffffffffffffffffffffffffffffffffffffffffffffffffffffff038211156117d5576117d4611a1d565b5b828201905092915050565b60006117eb82611901565b91506117f683611901565b92508261180657611805611a4c565b5b828204905092915050565b600061181c82611901565b915061182783611901565b9250817fffffffffffffffffffffffffffffffffffffffffffffffffffffffffffffffff04831182151516156118605761185f611a1d565b5b828202905092915050565b600061187682611901565b915061188183611901565b92508282101561189457611893611a1d565b5b828203905092915050565b60006118aa826118e1565b9050919050565b60006118bc826118e1565b9050919050565b60008115159050919050565b60006118da8261189f565b9050919050565b600073ffffffffffffffffffffffffffffffffffffffff82169050919050565b6000819050919050565b60006119168261191d565b9050919050565b6000611928826118e1565b9050919050565b82818337600083830152505050565b60005b8381101561195c578082015181840152602081019050611941565b8381111561196b576000848401525b50505050565b6000600282049050600182168061198957607f821691505b6020821081141561199d5761199c611a7b565b5b50919050565b6119ac82611ad9565b810181811067ffffffffffffffff821117156119cb576119ca611aaa565b5b80604052505050565b60006119df82611901565b91507fffffffffffffffffffffffffffffffffffffffffffffffffffffffffffffffff821415611a1257611a11611a1d565b5b600182019050919050565b7f4e487b7100000000000000000000000000000000000000000000000000000000600052601160045260246000fd5b7f4e487b7100000000000000000000000000000000000000000000000000000000600052601260045260246000fd5b7f4e487b7100000000000000000000000000000000000000000000000000000000600052602260045260246000fd5b7f4e487b7100000000000000000000000000000000000000000000000000000000600052604160045260246000fd5b6000601f19601f8301169050919050565b7f5072696365206d7573742062652067726561746572207468616e207a65726f00600082015250565b7f5265656e7472616e637947756172643a207265656e7472616e742063616c6c00600082015250565b611b45816118b1565b8114611b5057600080fd5b50565b611b5c816118cf565b8114611b6757600080fd5b50565b611b7381611901565b8114611b7e57600080fd5b5056fea26469706673582212201f119524045a0cd9beb9ba11144323aa51008ef6830ea44fc1f71a61f46e2d8664736f6c63430008040033",
  "linkReferences": {},
  "deployedLinkReferences": {}
}