{
  "_format": "hh-sol-artifact-1",
  "contractName": "Marketplace",
  "sourceName": "src/backend/contracts/Marketplace.sol",
  "abi": [
    {
      "inputs": [
        {
          "internalType": "uint256",
          "name": "_feePercent",
          "type": "uint256"
        }
      ],
      "stateMutability": "nonpayable",
      "type": "constructor"
    },
    {
      "anonymous": false,
      "inputs": [
        {
          "indexed": false,
          "internalType": "uint256",
          "name": "itemId",
          "type": "uint256"
        },
        {
          "indexed": true,
          "internalType": "address",
          "name": "nft",
          "type": "address"
        },
        {
          "indexed": false,
          "internalType": "uint256",
          "name": "tokenId",
          "type": "uint256"
        },
        {
          "indexed": false,
          "internalType": "uint256",
          "name": "price",
          "type": "uint256"
        },
        {
          "indexed": true,
          "internalType": "address",
          "name": "seller",
          "type": "address"
        },
        {
          "indexed": true,
          "internalType": "address",
          "name": "buyer",
          "type": "address"
        }
      ],
      "name": "Bought",
      "type": "event"
    },
    {
      "anonymous": false,
      "inputs": [
        {
          "indexed": false,
          "internalType": "uint256",
          "name": "itemId",
          "type": "uint256"
        },
        {
          "indexed": true,
          "internalType": "address",
          "name": "nft",
          "type": "address"
        },
        {
          "indexed": false,
          "internalType": "uint256",
          "name": "tokenId",
          "type": "uint256"
        },
        {
          "indexed": true,
          "internalType": "address",
          "name": "seller",
          "type": "address"
        }
      ],
      "name": "OfferCanceled",
      "type": "event"
    },
    {
      "anonymous": false,
      "inputs": [
        {
          "indexed": false,
          "internalType": "uint256",
          "name": "itemId",
          "type": "uint256"
        },
        {
          "indexed": true,
          "internalType": "address",
          "name": "nft",
          "type": "address"
        },
        {
          "indexed": false,
          "internalType": "uint256",
          "name": "tokenId",
          "type": "uint256"
        },
        {
          "indexed": false,
          "internalType": "uint256",
          "name": "price",
          "type": "uint256"
        },
        {
          "indexed": true,
          "internalType": "address",
          "name": "seller",
          "type": "address"
        }
      ],
      "name": "Offered",
      "type": "event"
    },
    {
      "inputs": [
        {
          "internalType": "uint256",
          "name": "_itemId",
          "type": "uint256"
        }
      ],
      "name": "cancelItemOffer",
      "outputs": [],
      "stateMutability": "payable",
      "type": "function"
    },
    {
      "inputs": [],
      "name": "feeAccount",
      "outputs": [
        {
          "internalType": "address payable",
          "name": "",
          "type": "address"
        }
      ],
      "stateMutability": "view",
      "type": "function"
    },
    {
      "inputs": [],
      "name": "feePercent",
      "outputs": [
        {
          "internalType": "uint256",
          "name": "",
          "type": "uint256"
        }
      ],
      "stateMutability": "view",
      "type": "function"
    },
    {
      "inputs": [
        {
          "internalType": "uint256",
          "name": "_itemId",
          "type": "uint256"
        }
      ],
      "name": "getTotalPrice",
      "outputs": [
        {
          "internalType": "uint256",
          "name": "",
          "type": "uint256"
        }
      ],
      "stateMutability": "view",
      "type": "function"
    },
    {
      "inputs": [],
      "name": "itemCount",
      "outputs": [
        {
          "internalType": "uint256",
          "name": "",
          "type": "uint256"
        }
      ],
      "stateMutability": "view",
      "type": "function"
    },
    {
      "inputs": [
        {
          "internalType": "uint256",
          "name": "",
          "type": "uint256"
        }
      ],
      "name": "items",
      "outputs": [
        {
          "internalType": "uint256",
          "name": "itemId",
          "type": "uint256"
        },
        {
          "internalType": "contract IERC721",
          "name": "nft",
          "type": "address"
        },
        {
          "internalType": "uint256",
          "name": "tokenId",
          "type": "uint256"
        },
        {
          "internalType": "uint256",
          "name": "price",
          "type": "uint256"
        },
        {
          "internalType": "address payable",
          "name": "seller",
          "type": "address"
        },
        {
          "internalType": "bool",
          "name": "sold",
          "type": "bool"
        },
        {
          "internalType": "bool",
          "name": "canceled",
          "type": "bool"
        }
      ],
      "stateMutability": "view",
      "type": "function"
    },
    {
      "inputs": [
        {
          "internalType": "contract IERC721",
          "name": "_nft",
          "type": "address"
        },
        {
          "internalType": "uint256",
          "name": "_tokenId",
          "type": "uint256"
        },
        {
          "internalType": "uint256",
          "name": "_price",
          "type": "uint256"
        }
      ],
      "name": "makeItem",
      "outputs": [],
      "stateMutability": "nonpayable",
      "type": "function"
    },
    {
      "inputs": [
        {
          "internalType": "uint256",
          "name": "_itemId",
          "type": "uint256"
        }
      ],
      "name": "purchaseItem",
      "outputs": [],
      "stateMutability": "payable",
      "type": "function"
    }
  ],
  "bytecode": "0x60c060405234801561001057600080fd5b5060405161127338038061127383398181016040528101906100329190610094565b60016000819055503373ffffffffffffffffffffffffffffffffffffffff1660808173ffffffffffffffffffffffffffffffffffffffff1660601b815250508060a08181525050506100de565b60008151905061008e816100c7565b92915050565b6000602082840312156100a657600080fd5b60006100b48482850161007f565b91505092915050565b6000819050919050565b6100d0816100bd565b81146100db57600080fd5b50565b60805160601c60a05161115f61011460003960008181610455015261051901526000818161042b015261069d015261115f6000f3fe60806040526004361061007b5760003560e01c8063bfb231d21161004e578063bfb231d21461011d578063ca7dd37514610160578063d38ea5bf1461019d578063fa00afc7146101b95761007b565b8063193bef0c1461008057806365e17c9d1461009c5780636bfb0d01146100c75780637fd6f15c146100f2575b600080fd5b61009a60048036038101906100959190610c16565b6101e2565b005b3480156100a857600080fd5b506100b1610429565b6040516100be9190610cd0565b60405180910390f35b3480156100d357600080fd5b506100dc61044d565b6040516100e99190610d62565b60405180910390f35b3480156100fe57600080fd5b50610107610453565b6040516101149190610d62565b60405180910390f35b34801561012957600080fd5b50610144600480360381019061013f9190610c16565b610477565b6040516101579796959493929190610d7d565b60405180910390f35b34801561016c57600080fd5b5061018760048036038101906101829190610c16565b610513565b6040516101949190610d62565b60405180910390f35b6101b760048036038101906101b29190610c16565b610576565b005b3480156101c557600080fd5b506101e060048036038101906101db9190610bc7565b6108a2565b005b60026000541415610228576040517f08c379a000000000000000000000000000000000000000000000000000000000815260040161021f90610d42565b60405180910390fd5b6002600081905550600060026000838152602001908152602001600020905060008211801561025957506001548211155b61026257600080fd5b3373ffffffffffffffffffffffffffffffffffffffff168160040160009054906101000a900473ffffffffffffffffffffffffffffffffffffffff1673ffffffffffffffffffffffffffffffffffffffff16146102be57600080fd5b8060040160149054906101000a900460ff16156102da57600080fd5b60018160040160156101000a81548160ff0219169083151502179055508060010160009054906101000a900473ffffffffffffffffffffffffffffffffffffffff1673ffffffffffffffffffffffffffffffffffffffff166323b872dd303384600201546040518463ffffffff1660e01b815260040161035c93929190610ceb565b600060405180830381600087803b15801561037657600080fd5b505af115801561038a573d6000803e3d6000fd5b505050503373ffffffffffffffffffffffffffffffffffffffff168160010160009054906101000a900473ffffffffffffffffffffffffffffffffffffffff1673ffffffffffffffffffffffffffffffffffffffff167f6c3637f4c69d7c7754e8a81be1a32e0b50f414a6c8d7c323b03ffe2c49c2f18a848460020154604051610415929190610dec565b60405180910390a350600160008190555050565b7f000000000000000000000000000000000000000000000000000000000000000081565b60015481565b7f000000000000000000000000000000000000000000000000000000000000000081565b60026020528060005260406000206000915090508060000154908060010160009054906101000a900473ffffffffffffffffffffffffffffffffffffffff16908060020154908060030154908060040160009054906101000a900473ffffffffffffffffffffffffffffffffffffffff16908060040160149054906101000a900460ff16908060040160159054906101000a900460ff16905087565b600060647f000000000000000000000000000000000000000000000000000000000000000060646105449190610e5d565b60026000858152602001908152602001600020600301546105659190610ee4565b61056f9190610eb3565b9050919050565b600260005414156105bc576040517f08c379a00000000000000000000000000000000000000000000000000000000081526004016105b390610d42565b60405180910390fd5b600260008190555060006105cf82610513565b905060006002600084815260200190815260200160002090506000831180156105fa57506001548311155b61060357600080fd5b8134101561061057600080fd5b8060040160149054906101000a900460ff161561062c57600080fd5b8060040160009054906101000a900473ffffffffffffffffffffffffffffffffffffffff1673ffffffffffffffffffffffffffffffffffffffff166108fc82600301549081150290604051600060405180830381858888f1935050505015801561069a573d6000803e3d6000fd5b507f000000000000000000000000000000000000000000000000000000000000000073ffffffffffffffffffffffffffffffffffffffff166108fc8260030154846106e59190610f3e565b9081150290604051600060405180830381858888f19350505050158015610710573d6000803e3d6000fd5b5060018160040160146101000a81548160ff0219169083151502179055508060010160009054906101000a900473ffffffffffffffffffffffffffffffffffffffff1673ffffffffffffffffffffffffffffffffffffffff166323b872dd303384600201546040518463ffffffff1660e01b815260040161079393929190610ceb565b600060405180830381600087803b1580156107ad57600080fd5b505af11580156107c1573d6000803e3d6000fd5b505050503373ffffffffffffffffffffffffffffffffffffffff168160040160009054906101000a900473ffffffffffffffffffffffffffffffffffffffff1673ffffffffffffffffffffffffffffffffffffffff168260010160009054906101000a900473ffffffffffffffffffffffffffffffffffffffff1673ffffffffffffffffffffffffffffffffffffffff167f8b4c9c8a607d67b321582dd8461041b1dc2ceeca70c8b7f37f8e02095cf2e76d868560020154866003015460405161088d93929190610e15565b60405180910390a45050600160008190555050565b600260005414156108e8576040517f08c379a00000000000000000000000000000000000000000000000000000000081526004016108df90610d42565b60405180910390fd5b600260008190555060008111610933576040517f08c379a000000000000000000000000000000000000000000000000000000000815260040161092a90610d22565b60405180910390fd5b6001600081548092919061094690611002565b91905055508273ffffffffffffffffffffffffffffffffffffffff166323b872dd3330856040518463ffffffff1660e01b815260040161098893929190610ceb565b600060405180830381600087803b1580156109a257600080fd5b505af11580156109b6573d6000803e3d6000fd5b505050506040518060e0016040528060015481526020018473ffffffffffffffffffffffffffffffffffffffff1681526020018381526020018281526020013373ffffffffffffffffffffffffffffffffffffffff168152602001600015158152602001600015158152506002600060015481526020019081526020016000206000820151816000015560208201518160010160006101000a81548173ffffffffffffffffffffffffffffffffffffffff021916908373ffffffffffffffffffffffffffffffffffffffff160217905550604082015181600201556060820151816003015560808201518160040160006101000a81548173ffffffffffffffffffffffffffffffffffffffff021916908373ffffffffffffffffffffffffffffffffffffffff16021790555060a08201518160040160146101000a81548160ff02191690831515021790555060c08201518160040160156101000a81548160ff0219169083151502179055509050503373ffffffffffffffffffffffffffffffffffffffff168373ffffffffffffffffffffffffffffffffffffffff167f655a0cf9c8db81512be9a76dc1c5ae5380b8816ce6ad659cd61b715e2999d59a6001548585604051610b8893929190610e15565b60405180910390a36001600081905550505050565b600081359050610bac816110fb565b92915050565b600081359050610bc181611112565b92915050565b600080600060608486031215610bdc57600080fd5b6000610bea86828701610b9d565b9350506020610bfb86828701610bb2565b9250506040610c0c86828701610bb2565b9150509250925092565b600060208284031215610c2857600080fd5b6000610c3684828501610bb2565b91505092915050565b610c4881610f84565b82525050565b610c5781610f72565b82525050565b610c6681610f96565b82525050565b610c7581610fde565b82525050565b6000610c88601f83610e4c565b9150610c93826110a9565b602082019050919050565b6000610cab601f83610e4c565b9150610cb6826110d2565b602082019050919050565b610cca81610fd4565b82525050565b6000602082019050610ce56000830184610c3f565b92915050565b6000606082019050610d006000830186610c4e565b610d0d6020830185610c4e565b610d1a6040830184610cc1565b949350505050565b60006020820190508181036000830152610d3b81610c7b565b9050919050565b60006020820190508181036000830152610d5b81610c9e565b9050919050565b6000602082019050610d776000830184610cc1565b92915050565b600060e082019050610d92600083018a610cc1565b610d9f6020830189610c6c565b610dac6040830188610cc1565b610db96060830187610cc1565b610dc66080830186610c3f565b610dd360a0830185610c5d565b610de060c0830184610c5d565b98975050505050505050565b6000604082019050610e016000830185610cc1565b610e0e6020830184610cc1565b9392505050565b6000606082019050610e2a6000830186610cc1565b610e376020830185610cc1565b610e446040830184610cc1565b949350505050565b600082825260208201905092915050565b6000610e6882610fd4565b9150610e7383610fd4565b9250827fffffffffffffffffffffffffffffffffffffffffffffffffffffffffffffffff03821115610ea857610ea761104b565b5b828201905092915050565b6000610ebe82610fd4565b9150610ec983610fd4565b925082610ed957610ed861107a565b5b828204905092915050565b6000610eef82610fd4565b9150610efa83610fd4565b9250817fffffffffffffffffffffffffffffffffffffffffffffffffffffffffffffffff0483118215151615610f3357610f3261104b565b5b828202905092915050565b6000610f4982610fd4565b9150610f5483610fd4565b925082821015610f6757610f6661104b565b5b828203905092915050565b6000610f7d82610fb4565b9050919050565b6000610f8f82610fb4565b9050919050565b60008115159050919050565b6000610fad82610f72565b9050919050565b600073ffffffffffffffffffffffffffffffffffffffff82169050919050565b6000819050919050565b6000610fe982610ff0565b9050919050565b6000610ffb82610fb4565b9050919050565b600061100d82610fd4565b91507fffffffffffffffffffffffffffffffffffffffffffffffffffffffffffffffff8214156110405761103f61104b565b5b600182019050919050565b7f4e487b7100000000000000000000000000000000000000000000000000000000600052601160045260246000fd5b7f4e487b7100000000000000000000000000000000000000000000000000000000600052601260045260246000fd5b7f5072696365206d7573742062652067726561746572207468616e207a65726f00600082015250565b7f5265656e7472616e637947756172643a207265656e7472616e742063616c6c00600082015250565b61110481610fa2565b811461110f57600080fd5b50565b61111b81610fd4565b811461112657600080fd5b5056fea2646970667358221220350a91ee022ff230dc5573aa04f72e85ef6498800813d9fa26258a42efe52e4564736f6c63430008040033",
  "linkReferences": {},
  "deployedLinkReferences": {}
}